:100000000A128A11F62F00308A000408840A820737
:100010000034533431343A34203420342034203402
:10002000533432343A34203420342034203453349E
:1000300033343A3400342034203420342034003433
:1008AA00F0007008831203139300080083160313E1
:1008BA00141C602C612C5B2C08000A128A115B2420
:1008CA000A128A118312031313080800F400831210
:1008DA000313091474080A128A118D260A128A113E
:1008EA008312031389141A30F300F30B7A2C0000D5
:1008FA008312031389100800F30083160313871267
:10090A00731D882C892C8D2C720894008715912CC4
:10091A007008720494008711730871048312031318
:10092A0094000800F50083120313091075080A12CF
:10093A008A118D260A128A118312031389140B3025
:10094A00F4006230F300F30BA82CF40BA82C00007F
:10095A008312031389100800F7007703031DB62CCE
:10096A00B72CC12C76087F3EF80078080A128A1143
:10097A0097240A128A11D02C02307706031DC62C3E
:10098A00C72CD02C7608BF3EF80078080A128A11C4
:10099A0097240A128A110800F700F501F601E82CDB
:1009AA007508770784000A128A1103200A128A112D
:1009BA000A128A116B240A128A110130F5070318E8
:1009CA00F60A0030F6077508770784000A128A11BA
:1009DA0003200A128A11003A031DF42CF52CD52C97
:1009EA0008007030831603138F040F14831603173D
:1009FA008801831603138501831603178901831659
:100A0A0003130711871086018801831203138601D5
:100A1A008801831603138901831203130715F00152
:100A2A00F101F20120300A128A1181240A128A1174
:100A3A00080000300A128A118D260A128A113430EF
:100A4A00F700F130F600F60B282DF70B282D2D2D87
:100A5A0030300A128A1197240A128A110D30F700CF
:100A6A00FB30F600F60B372DF70B372D3C2D3030C7
:100A7A000A128A1197240A128A114230F600F60BDA
:100A8A00442D000038300A128A1197240A128A115A
:100A9A000C300A128A1197240A128A1101300A129A
:100AAA008A1197240A128A1106300A128A11972487
:100ABA000A128A110800F601F31F642D652D6C2DA8
:100ACA00F209F309F20A0319F30AF601F60AF11F09
:100ADA006F2D702D752DF009F109F00A0319F10A2D
:100AEA007008710403197A2D7B2DAA2DF501F50AD8
:100AFA00892D01300310F00DF10DFF3E031D7F2DEE
:100B0A000130F4007408F507F11F8C2D8D2D7E2D10
:100B1A0071087302031D932D70087202031C962D2F
:100B2A00972D9D2D7008F2027108031CF303F3023E
:100B3A0001300310F10CF00CFF3E031D9E2D013015
:100B4A00F502031DA92DAA2D8D2D76080319AE2DA8
:100B5A00AF2DB42DF209F309F20A0319F30A730847
:100B6A00F1007208F000080083120313A101F81FB4
:100B7A00BF2DC02DC72DF709F809F70A0319F80A7E
:100B8A00A101A10AFA1FCA2DCB2DD42DF909FA0900
:100B9A00F90A0319FA0A0130FB007B08A106A2012F
:100BAA00A301770878040319DB2DDC2D132EA0018D
:100BBA00A00AEA2D01300310F70DF80DFF3E031DC0
:100BCA00E02D0130FB007B08A007F81FED2DEE2D6C
:100BDA00DF2D01300310A20DA30DFF3E031DEF2DE3
:100BEA0078087A02031DFB2D77087902031CFE2D73
:100BFA00FF2D062E7708F9027808031CFA03FA0279
:100C0A00221401300310F80CF70CFF3E031D072EC7
:100C1A000130A002031D122E132EEE2D21080319F6
:100C2A00172E182E1D2EA209A309A20A0319A30A18
:100C3A002308F8002208F70008006430F7000030A3
:100C4A00F800831203132508FA002408F9000A128F
:100C5A008A11B9250A128A117708303E83120313C2
:100C6A00A60078080318013E003EA7000A30F700E4
:100C7A000030F8002508F3002408F2006430F00080
:100C8A000030F1000A128A1160250A128A117108CD
:100C9A00FA007008F9000A128A11B9250A128A1193
:100CAA007708303E83120313A80078080318013E20
:100CBA00003EA9000A30F0000030F1002508F300D8
:100CCA002408F2000A128A1160250A128A11700891
:100CDA00303E83120313AA0071080318013E003E36
:100CEA00AB0026080A128A116B240A128A1183128F
:100CFA00031328080A128A116B240A128A11831212
:100D0A0003132A080A128A116B240A128A1108008C
:100D1A00F20083160313860101307205F000831274
:100D2A00031306087006FE39700686007208F00082
:100D3A000310700C0139F100F10D06087106FD3936
:100D4A00710686007208F00002300310F00CFF3EB4
:100D5A00031DAA2E70080139F100F10DF10D0608E4
:100D6A007106FB39710686007208F0000330031021
:100D7A00F00CFF3E031DBC2E70080139F100F10D85
:100D8A00F10DF10D06087106F73971068600720831
:100D9A00F00004300310F00CFF3E031DCF2E700844
:100DAA000139F100F10E06087106EF397106860065
:100DBA007208F00005300310F00CFF3E031DE02E10
:100DCA0070080139F100F10EF10D06087106DF39DC
:100DDA00710686007208F00006300310F00CFF3E20
:100DEA00031DF22E70080139F100F10EF10DF10D1B
:100DFA0006087106BF39710686007208F0000730CE
:100E0A000310F00CFF3E031D052F70080139F10095
:100E1A00F10CF10C060871067F397106860008008C
:100E2A000A128A11F6240A128A110A128A111E2536
:100E3A000A128A11F601F60A01300A128A11B1243D
:100E4A000A128A1101300A128A11D1240A128A114D
:100E5A00831203130711033083120313AD00973073
:100E6A00AC00AC0B362FAD0B362F7C08031D3E2F82
:100E7A003F2F522F00300A128A1155240A128A1162
:100E8A000A128A1162240A128A1183120313850034
:100E9A000508FD00FC01FC0A682F7C03031D562F80
:100EAA00572F682F00300A128A1155240A128A1104
:100EBA000A128A1162240A128A1183120313850004
:100ECA000508B000FC01033083120313AD0097300C
:100EDA00AC00AC0B6E2FAD0B6E2F831203130715EC
:100EEA008710033083120313AD009730AC00AC0BAC
:100EFA007C2FAD0B7C2F00300A128A1155240A125E
:100F0A008A110A128A1162240A128A11831203139D
:100F1A00AF00033083120313AD009730AC00AC0B63
:100F2A00942FAD0B942F831203138714033083126B
:100F3A000313AE008A30AD005530AC00AC0BA32FC2
:100F4A00AD0BA32FAE0BA32FF601F60A02300A123D
:100F5A008A11B1240A128A117D0883120313AC0084
:100F6A00AD012C08A4002D08A5000A128A11222618
:100F7A000A128A1114300A128A11D1240A128A1109
:100F8A00831203133008AC00AD012C08A4002D080D
:100F9A00A5000A128A1122260A128A1113300A128D
:100FAA008A11D1240A128A11831203132F08AC0062
:100FBA00AD012C08A4002D08A5000A128A112226C8
:100FCA000A128A11063083120313AD002F30AC00C7
:100FDA00AC0BED2FAD0BED2FF22F1F2F0A128A113A
:100FEA000028FC01FD0183120313AF01B001830144
:060FFA000A128A11152FF6
:08400000FF3FFF3FFF3FFF3FC0
:04400E00D420FF3F7C
:00000001FF
