:060000000A128A110C280F
:10000800FE00030EF2000A08F3000A128A111A29E8
:100018000A128A110F28F701F801F90183010A125F
:100028008A11A829831203130C13831603130C17C0
:100038000B1788288316031708148316031305144F
:10004800C330831203139F05A72883160317881448
:10005800831603138514831203131F08C339043846
:100068009F00A72883160317081583160313051581
:10007800831203131F08C33908389F00A728831663
:1000880003178815831603138515831203131F0896
:10009800C3390C389F00A728831603170816831640
:1000A80003138516831203131F08C33910389F00E2
:1000B800A7288316031788168316031309148312B7
:1000C80003131F08C33914389F00A7288316031782
:1000D8000817831603138914831203131F08C339DF
:1000E80018389F00A7288316031788178316031349
:1000F8000915831203131F08C3391C389F00A7284A
:10010800831603178801A7287508003A03198D2854
:1001180084287408003A03191E28013A031929286B
:10012800033A03193628013A03194328073A0319F1
:100138005028013A03195D28033A03196A28013A3D
:10014800031977288428831203131F083F3980383E
:100158009F00831603139F131F129F12831203130A
:100168001F140C130D3083120313A100FB30A000E1
:10017800A00BBC28A10BBC280800F40083160313AD
:1001880081137408031DC928CA28CE28061415141B
:10019800161413297403031DD228D328D7288614CC
:1001A80095149614132902307406031DDC28DD28E3
:1001B800E128061515151615132903307406031DB5
:1001C800E628E728EB288615951596151329043097
:1001D8007406031DF028F128F528061615161616BC
:1001E800132905307406031DFA28FB28FF288616F4
:1001F80095169616132906307406031D0429052939
:100208000929061715171617132907307406031D31
:100218000E290F29132986179517961713298B1955
:100228001629172919290B108B1508008312031397
:100238000C1F1F29202923291E0888000C130B1CBA
:10024800262927293E2906182A292B29332901304E
:10025800F1007108F807061C322933292F2986185E
:10026800362937293D290130F802861C3C293D29C9
:1002780039290B108C1D412942296B297708031D48
:100288004629472957290A128A11FB210A128A117D
:10029800831203131E080A128A110B220A128A11EA
:1002A800F701F70A68297703031D5B295C29682988
:1002B8000A128A11FB210A128A1178080A128A1175
:1002C8000B220A128A11F701831203138C11730887
:1002D8008A00720E8300FE0E7E0E090070308316AF
:1002E80003138F040F1483160317890188018316DB
:1002F800031385018601870188018901831203138D
:100308008501860187018801890100300A128A1156
:10031800C1200A128A1101300A128A11C1200A1258
:100328008A118B170B17831203138C11831603136F
:100338008C158516F401F501F60124300A128A118C
:10034800CC210A128A1108000A128A1172210A1293
:100358008A110030F400F5000A128A1116200A12D8
:100368008A110A128A11EA210A128A1103308312A9
:100378000313A4008A30A3005530A200A20BC2299F
:10038800A30BC229A40BC229B5290A128A110C2869
:1003980083120313A0008316031387128312031317
:1003A800201DD729D829DE2976088316031394003F
:1003B8008715E429740876048316031394008711BB
:1003C8008312031320087504940008008312031392
:1003D8009F18EF29F029FA299F140630F5003030CC
:1003E800F400F40BF529F50BF529000008000A12B2
:1003F8008A1104220A128A118312031313080800AF
:1004080083160313141C092A0A2A042A0800F00078
:0A041800700883120313930008001C
:08400000FF3FFF3FFF3FFF3FC0
:04400E00D420FF3F7C
:00000001FF
